:020000041101E8
:100100008022F8B5964C974BD200002120001C604D
:1001100002F0C2FC2300944A88331A60934B1A7889
:100120006A23002A00D01133E3620A232365904B2F
:1001300037221B780820A3638E4B2118E36110231C
:1001400023628D4B3B256361C823DB00A361230041
:100150008C331A602823013AE26320646364CA671F
:10016000043A211DCA672100BC310D602100C03155
:1001700008602100C4310B6021000635CC310D60D0
:100180002100083DC8310D602100D0310A602200F5
:10019000D43210602200D832136022000227E032ED
:1001A000210017604222DC310A6021001B3DE4314E
:1001B0000D602100E83108602100EC310B60230064
:1001C0000521F43319602300F0331A60230018323C
:1001D00090331A6023009433186023001E3A98333A
:1001E0001A60AF23DB002360644BFA262363644B61
:1001F000644DE360644BF031A3642300FF31FC33B2
:10020000B600A16021611E60A5627325E5656D3DA4
:100210006565A56596255D4AAD00E2646662586035
:100220006766A56600270925A767E566584F594DFB
:10023000606720002567E2673A6015279C30676099
:1002400007001A2038602000A03007002120386005
:100250002000A83007004C4838602000F8300660C5
:1002600026006427A436376026005F3FAC3637602F
:100270002600033FB03637602600C637B4363760F5
:1002800026000027B836376038269E60424E9620FA
:100290005E64424E5A66DE61414E9A645E62F53E8D
:1002A000FF3E9E621E269A67354A8000DE661F6703
:1002B0005F67DD651D661862DA67BE23394A5B0039
:1002C000E250394BD838235004302250C422520017
:1002D000A350C623E4205B00E1500433334AE150CD
:1002E0003349344BD1603449800019503349E938DF
:1002F000FF38195032490430195032493248D1611F
:1003000032491163324951631900F4310860CE203B
:100310003049400011603049195019002F48F83118
:1003200008602F49D16582212E4A89005A501A004F
:100330002D490832D1671A002C49B4321160882146
:100340002B4A89005A501A002A49883211602A4AD9
:10035000DA6402F0C1FB012002F0FEFBF8BDC046EA
:100360000004FF1F2CBBFF1F20C2FF1F18BBFF1F75
:100370004A0AFF1F3A07000080C3C9019A02000021
:10038000DC0500006A18000050C30000881300005C
:10039000F009FF1F204E00006509FF1F68100000D4
:1003A000C409000040420F0010270000FC00FF1F9E
:1003B000D91AFF1F0000FF1F492BFF1F612EFF1FCF
:1003C000F92CFF1F991EFF1FA525FF1FB51EFF1F3C
:1003D0006120FF1F251EFF1FC927FF1FB128FF1F18
:1003E000D918FF1FD526FF1FDD23FF1FE923FF1F9D
:1003F000251DFF1FDD1DFF1F9D1CFF1F024A1368E7
:100400005B4213607047C046B83AFF1F70B50124C5
:10041000124B134A1C700023124D134E136000221E
:10042000A95E0022B05E032200F0E6FD40230F4AE1
:1004300033602B6013681B191360234200D0023C09
:100440000B4A1460DA0FD3189B0703D40123094A1F
:10045000136070BD01235B42F9E7C046FC3AFF1F01
:10046000F83AFF1FCC3AFF1FD03AFF1FF43AFF1FA4
:10047000C83AFF1FC43AFF1FF8B5154F3B78002B51
:1004800024D0144C144A2368144EDB07DB171340A6
:10049000F822134D12029B180022B15E0022A85EC2
:1004A000032200F0A9FD2368013323600B2B0ADD32
:1004B00000233B700023F15E0023E85EF823032253
:1004C0001B0200F099FD642002F056FBF8BDC04607
:1004D000FC3AFF1FF83AFF1FE00FFFFFCC3AFF1F67
:1004E000D03AFF1FF8B52E4B1B78002B02D0FFF738
:1004F000C3FFF8BD2B4C2C4D0022A05E0022A95E4C
:10050000032200F079FD2948294E236802683168EA
:100510002F68D318CF1923600E2F33DD2F60296881
:100520007C2902DD35686D423560002A0EDA092B20
:100530000CDC204DCE1C2D68AE4228DBCE1E1435BF
:10054000AE4224DC0923524223600260036826681D
:10055000002B0EDD762E0CDD174ACD1C126895425D
:100560001ADBCD1E1432954216DC77225B422260E4
:1005700003600023E05EF823032209B21B0200F0AF
:100580003BFDB6E70E2749422F603160C7E7022BDB
:10059000DCDCFFF73BFFACE77D2EEADDF9E7C04688
:1005A000FC3AFF1FD03AFF1FCC3AFF1FC83AFF1F8B
:1005B000C43AFF1FC03AFF1FBC3AFF1F73B50026A5
:1005C000254C04220023E15E02201423009600F053
:1005D00029FB224D04220023E95E7A201423009691
:1005E00000F020FB1E4A216813685B005B180A2B91
:1005F00004DC0B2323600A3B136002E06C2B1EDC3F
:1006000023602B68174A190012680A3191421ADADE
:100610006B2B18DC01332B600023E15EFC24E4002B
:10062000142304220220009400F0FCFA0023E95E67
:10063000042214237A20009400F0F4FA73BD6C2392
:1006400023606D3BD8E7190009318A42E4DC0B2BAB
:10065000E2DD013BDFE7C046C03AFF1FBC3AFF1FA7
:10066000B83AFF1FCC3AFF1F13B500221D490720DF
:1006700001F03AF88021FC240022080000F018FA6A
:10068000194800F0E3F9194800F0EEF9012000F0F4
:10069000E3F9012000F0F2F900210E2000F0F4F956
:1006A000134800F015FC134BE4000021595E0422AE
:1006B00014230220009400F0B5FA0F4B042200210D
:1006C000595E7A201423009400F0ACFAF8230B4A08
:1006D0001B020021515E0A4A0020105E032200F036
:1006E0008BFC13BDFD030111F02D0111FFFF000074
:1006F000182C0111C03AFF1FBC3AFF1FCC3AFF1F54
:10070000D03AFF1F10B5FFF7EDFEFFF757FF0A20A5
:1007100002F032FA10BD000037B50D0004000121CF
:10072000102000F0EBFE0023009522000121019330
:10073000014801F019FA37BD07BBFF1F10B50400CF
:100740000021102000F0DAFE2100024801F0F6FB43
:1007500010BDC04607BBFF1FF7B57F270578441CB7
:10076000002D00D1F7BD2078FFF7E8FF0122A25647
:100770006378002A17DB002602341A003A400192FF
:100780003B4205D020001100FFF7C6FF019BE41893
:10079000002E05D0FF2E00D1F536300002F0ECF926
:1007A000013DEDB2DCE7A6780334E6E7F0B51700CB
:1007B0000500002685B02A2000910193FFF7BEFFB7
:1007C000114B03AC1B78042120005D19DB19E37089
:1007D00026706570A670FFF79FFF2B20FFF7AEFF16
:1007E0000A4B009A1B7804219A186270019A200023
:1007F0009B18E3702670A670FFF78EFF2C20FFF782
:100800009DFF05B0F0BDC04605BBFF1F04BBFF1F29
:1008100007B5FFF7CBFF0121102000F06FFE00238A
:10082000059A0121520092B200920348049A019362
:1008300001F09AF907BDC04607BBFF1F032213B59D
:10084000144B02401A70144B1B78002B04D1800704
:100850001249C00F0130087059424B41DBB2022AE5
:1008600013D0A824032A04D0803C012A01D05B00C5
:10087000203C0B4A36201370FFF760FF6B460121C6
:10088000D81D0470FFF748FF13BD5B00C824DBB21E
:10089000EFE7C046FEBAFF1F06BBFF1F04BBFF1FEA
:1008A00005BBFF1FF7B502008020174BC0011D8854
:1008B000164B013880B21A8002330028F9D1144E49
:1008C0006B1E32880100013ADBB2D2B2FFF76EFF35
:1008D0000121102000F012FE8027002D00D1F7BD6D
:1008E0002C1C802D00D93C1C002301933288A4B21B
:1008F0006243520092B2009201210648034A2D1B26
:1009000001F032F9ADB2E8E700BBFF1FFE3AFF1F6E
:1009100002BBFF1F07BBFF1F1FB50F4B1B88834286
:1009200019D90E4B1B888B4215D9C0B2C9B203AC82
:1009300052BA0B0022800200FFF738FF012110207D
:1009400000F0DCFD02220023009201212200044875
:10095000019301F009F91FBD02BBFF1F00BBFF1F80
:1009600007BBFF1F10B50021012000F0C7FD10BD1F
:10097000F0B52B4B89B018802A4B2B4D19801020D5
:1009800001212A7000F08CFD01210F2000F088FD6C
:100990000121132000F084FD00210F2000F0AEFDA6
:1009A0000A2002F0E9F801210F2000F0A7FD03ACB6
:1009B0000A2002F0E1F822001C4B012443CB43C281
:1009C000002603CB03C26A46194806AB067082CBE9
:1009D00082C20399049A059B01F0EEFA1548FFF7CD
:1009E000BBFE1548FFF7B8FE0222144B14481A70DC
:1009F000144B1C70FFF7B0FE134B30001E70FFF756
:100A00001DFF2878FFF71AFF3000FFF74BFF21008A
:100A1000200000F045FDFFF7A5FF09B0F0BDC0467E
:100A200002BBFF1F00BBFF1FFEBAFF1FDC2D011121
:100A300007BBFF1FA02D0111932D011105BBFF1F47
:100A4000682D011104BBFF1F06BBFF1F014B18607F
:100A50007047C04610BBFF1F002801D0014B187023
:100A60007047C046D53AFF1F024B1880024B1880D2
:100A70007047C046D63AFF1F0CBBFF1F014B1870D2
:100A80007047C046D43AFF1F054B064A1880064BF4
:100A900006481B6800789B7A43435B1813807047B5
:100AA0000ABBFF1F08BBFF1F10BBFF1FD53AFF1F6C
:100AB00010B5034B1880034B1980FFF759FF10BD89
:100AC00016BBFF1F14BBFF1F030010B50B430BD455
:100AD000064B1B88984207DA054B1B88994203DABC
:100AE00089B280B2FFF718FF10BDC04616BBFF1FCA
:100AF00014BBFF1FF0B585B006000C001500029373
:100B000000282FDB1F4B1B8898422BDA1E4B1B88BB
:100B1000994227DA002902DA002455182DB2621909
:100B2000934201DA1B1B1DB2002D1BDDABB2580036
:100B300080B2039302F050F8071E15D000230299EB
:100B40005A000133B952AB42F9DBE1B24B1EF0B2AD
:100B50005B190200DBB201950097FFF759FE3800E0
:100B600001F062FF05B0F0BD039BA4B21D19ADB248
:100B700021B201343000029AA4B2FFF7A5FFAC42C3
:100B8000F6D1EFE716BBFF1F14BBFF1FF0B585B012
:100B900004000E001500029300292FDB1F4B1B8859
:100BA00099422BDA1E4B1B88984227DA002802DA7A
:100BB000002415182DB26219934201DA1B1B1DB2D5
:100BC000002D1BDDABB2580080B2039302F004F895
:100BD000071E15D0002302995A000133B952AB42C7
:100BE000F9DBE0B2421EF1B252190B00D2B201950C
:100BF0000097FFF70DFE380001F016FF05B0F0BDBD
:100C0000039BA4B21D19ADB220B201343100029A87
:100C1000A4B2FFF759FFAC42F6D1EFE714BBFF1FB8
:100C200016BBFF1FF0B587B01E000CAB1B880292ED
:100C300004932D4B07001A880D00904240DA2B4B8D
:100C40001B8899423CDA0299002939DD002E37DDF4
:100C5000002803DA0F1839B200270291002D02DABA
:100C60007619002536B2029979188A4202DAD21B27
:100C700012B20292AA19934201DA5B1B1EB2029BC6
:100C8000734303935B0005936B46988A01F0A4FFBE
:100C9000041E25D00300059A82189A4212D1F8B298
:100CA000E9B2029D421E4B1E5219039D9B19DBB2F5
:100CB000D2B201950094FFF7ABFD200001F0B4FE25
:100CC00007B0F0BD049919800233E6E7A4B26119B8
:100CD0003800049B029A09B2FFF758FF013424B28E
:100CE000A642F3DCECE7C04616BBFF1F14BBFF1F98
:100CF000F0B593B0089318AB1B880600099319ABA5
:100D00001C784B4B1B68181E00D18FE0187A90425C
:100D10003ED85D7A95423BD3121AD2B258681B680E
:100D2000D20085180C93835A052003950593AB7860
:100D30000D93AB79EA7828565BB2012C2AD806903D
:100D40002000584389B29BB25D18081851185B18EF
:100D50009BB21093B3B20B93069B0B9A6343D318C9
:100D60009BB21193002380B20790ADB20493109A06
:100D7000AA4257D06A461C21525E06990A920B9AE3
:100D8000119F56180D9AB6B29A18D2B20F9228E057
:100D90003F22C1E7604363430690D1E75A1CD2B2B9
:100DA0000E920722134207D1059B05990C9A013335
:100DB000525C9BB2049205936B461B7C5BB2002B8A
:100DC00022DA012C17D1089A29B230B2FFF77CFE43
:100DD000049B3F195B00DBB2049301360E9BBFB24C
:100DE000B6B20F9A9342D9D1079A0135121992B22D
:100DF0000792ADB2BBE7089B22B238B200930A99C2
:100E00001300FFF70FFFE3E7099B089A9342DFD037
:100E1000012C03D11A0029B230B2D7E7099B22B2C4
:100E200038B2EBE7039B1B795C4320B213B0F0BDF3
:100E300010BBFF1FF0B51E4F02003B6885B0002BB2
:100E40000CD01C4C0A280BD11B499B7A09781B4AF1
:100E50004B4311885B1813800023238005B0F0BD3D
:100E60000D28F9D0164B154D1B88134E0393002304
:100E7000E95E0023E05E33780193124B1B880093F8
:100E8000039BFFF735FF238818180F4B00B21B7820
:100E90002080002BE2D03B680C4A997A3378128884
:100EA0004B43D21A9042D9DD2A889B182B80D3E776
:100EB00010BBFF1F0ABBFF1FD53AFF1F08BBFF1F58
:100EC000D63AFF1F0CBBFF1FD43AFF1F16BBFF1FF4
:100ED00010B504002078002800D110BD0134FFF7C0
:100EE000A9FFF7E7F0B514008BB00490012005933B
:100EF00010AB00229A5E11AB1B8812180693A3B2A6
:100F0000C61A83405B421BB2099393B207938BB21C
:100F10000893079B36B20193089B02930023039327
:100F2000039BA34201DB0BB0F0BD2500002E07DBC5
:100F3000099B651E02331AB29E192DB2099236B270
:100F4000039B01339FB21BB203937B0001339E19B5
:100F5000039B36B29D4223DB0122059B13420DD039
:100F6000079BA9B24A009A18089B12B2591A049B0F
:100F700009B2F81800B2069BFFF7BCFD0222059BE0
:100F800013420DD0079BA9B24A009A18089B12B2CF
:100F9000591A049B09B2DF1B38B2069BFFF7AAFD62
:100FA000A5421FD00122059B13420BD06B460422A1
:100FB0009A5E6B460821595E049B181900B2069B85
:100FC000FFF798FD0222059B13420BD06B460422CB
:100FD0009A5E6B460821595E049B1C1B20B2069B3F
:100FE000FFF788FD029B2C00013B9BB20293019B03
:100FF00002339BB2019393E7F7B50D0091B216004F
:101000004A000132691A12B209B21F000400FFF748
:1010100071FD002332002900019700932000033363
:10102000FFF760FFF7BD0000F0B502230124434E37
:10103000434D93B033702C7001F06EFDFFF760F8F4
:1010400001F0EAFC1F2200213E4B46271A703E4B5E
:101050006F441C703D4B01AC19703D4B19689143B6
:10106000163A0A431A60602219689143403A0A43CB
:101070001A6001F0F1FC01F0A7FD364B9847C12042
:10108000FF21354B80001A588A431A50C52292001E
:1010900098588843BF390143995098582F490840C0
:1010A0008021C9010143802099509958C005090247
:1010B000090A0143995001A84222294901F074FC10
:1010C00061782078023400F005F9A742F8D1254C68
:1010D000254B226807201A40A023DB02134323601C
:1010E000802322689B041343236022681F4B1A400D
:1010F00080239B031343236001F046FD01F07CFC39
:1011000080232268DB0413432360307801F064FC01
:101110002878C0B201F0D8FC01F066FC1449042024
:1011200001F062FD00F002FB01F0EAFB00F042F882
:1011300000F020F8002013B0F0BDC0464A0AFF1F9F
:1011400018BBFF1F480AFF1F490AFF1F680AFF1F3D
:10115000BCF00040E1A2000000E100E0FF00FFFF62
:101160004034011114F00040FF7FF8FFFFFF9FFFA4
:101170003B00010801F080FC012001F03DFD01F081
:1011800043FD000010B5042001F026FD084B0422A9
:101190000021186001F050FC002001F035FC012016
:1011A00001F0E2FCFFF760FAFFF7ACFAFCE7C0469B
:1011B0001CBBFF1F10B5002000F084FA00210800BE
:1011C00000F09CF9032000F07DFA0021032000F0DC
:1011D00095F910BD0C234343084A10B59B185A6873
:1011E000002A03D0012901D1904710BD9B68002B34
:1011F000FBD00029F9D19847F7E7C046DCBBFF1FB9
:1012000001238340094A10B5946B1C439463506BCF
:1012100098435063D46B20009843012901D12000EA
:101220001843D063116B0B43136310BD0080004063
:10123000F0B500240127154B85B0DA6B144E0392EC
:101240001A6C0192DA64019BE3403B4217D0039D84
:10125000E5403D400295E5B202992800FFF7BAFF4C
:10126000316A736A002908D03900002B01D0029935
:1012700079402800FFF7C4FF01E0002BF9D10134C9
:101280000C36172CDFD105B0F0BDC0460080004001
:10129000C0BBFF1F064B01215A68C2400A4204D05E
:1012A0001B68C3401800084070471B6DF9E7C04633
:1012B000008000400122064B8240002903D0D968FB
:1012C0000A43DA607047D9689143D960FAE7C046AB
:1012D0000038004030B5032444430F4BE25C1B1937
:1012E0009C785D7801232D1B0135AB40013BA34069
:1012F000A140DB430C00122807D80849920052187D
:10130000116819402143116030BD054A11680B4036
:1013100023431360F8E7C046BA34011108F00040D7
:1013200014F00040C21F70B5D4B20623092C0BD8AC
:101330000125084C9540002908D00021FFF7CAFF7D
:1013400023682B4323600023180070BD2368AB4340
:10135000F8E7C04600380040214BF0B51B185B7819
:10136000022B21D1032444431E4A1F4EA35C1219B1
:101370009478012215008540B76B013CE4B23D43EF
:10138000A240B563194C122815D89B0000290CD136
:1013900017495B1899680A439A600123205C154A33
:1013A000834011680B431360F0BD11495B189968C5
:1013B00091439960F1E70E4B00290DD159690A4319
:1013C0005A61225C1328E8D00123203A93400A494D
:1013D000086803430B60E7E7596991435961F0E7F7
:1013E000C0BBFF1FBA34011100800040FF3401115F
:1013F00000F00040A0F00040A4F00040F8B5002448
:101400001B4E1C4D1C4B1B5D012B1FD1194A9269B1
:10141000E2401A420BD00122B25693402200143A05
:10142000D2B2022A09D815494A6913434B610134E3
:1014300002360C35172CE5D1F8BD0022B2560F4903
:101440009200521891680B439360F0E7022BEED1A3
:10145000E7B23800FFF71EFF01235840C1B2380041
:10146000FFF77AFF3800FFF715FF6877DFE7C04620
:101470008C340111C0BBFF1FC1BBFF1F00F0004037
:10148000012202388240054B002903D059690A43E2
:101490005A617047596991435961FAE70038004031
:1014A000F8B50E0001210F008740114A0400D368EF
:1014B000FD43BB43D360831E8B4201D8FFF7E0FF9F
:1014C00000212000FFF72EFF0A4A0B4B5168012E26
:1014D00005D139431B1951605E700020F8BD2940C9
:1014E000516002221C1962709A6915409D61F4E7EF
:1014F0000038004000800040C0BBFF1F012210B533
:101500008240074B002906D019680A431A6001215E
:10151000FFF7C6FF10BD196891431960F7E7C04691
:10152000008000400C2370B5002543430A4A29007F
:101530009B181D70094B04001B185D70FFF7B0FF6E
:101540000123A340064928000A681A430A60054996
:101550000A689A430A6070BDDCBBFF1FC0BBFF1F57
:10156000348000403080004070B504000E00FF2839
:1015700013D003250540FFF7D5FF084AA3089B00B9
:101580009B183F22ED00AA40AE401968200091430D
:10159000314319600121FFF78DFE70BD18380040FE
:1015A000F8B50C244443134B0500E4186368002B82
:1015B00003D1A3681220002B1AD0022201270E4B60
:1015C00000215B195A7028002770FFF769FF6368D4
:1015D0001E1E08D0A3683E00002B04D02800FFF791
:1015E00059FE4640F6B228003100FFF709FE002000
:1015F000F8BDC046DCBBFF1FC0BBFF1FF7B5C42052
:10160000FF222B4B80001958002491433F3A0A4394
:101610001A508022274F5202274E1A60274B1D5D19
:10162000002D21D0A31E012B03D80121E0B2FFF72A
:1016300027FF012D18D11F4B9B69E3402B4213D08C
:10164000E3B218000193FFF725FE01000198FFF7B0
:1016500055FFE3B2143B022B1DD801217156184AE5
:101660008D405369AB4353613B7F002B0DD0E5B2F6
:101670002800FFF795FF2800FFF70CFE7B7F010095
:10168000834202D02800FFF7A5FD01340C37023653
:10169000172CC3D1F7BD012100237156F3568D409D
:1016A000074A9B009B189A68AA439A60DCE7C046E9
:1016B00000E100E0C0BBFF1F8C340111C1BBFF1F64
:1016C00000F0004010B501210400FFF7E9FE0123FE
:1016D000044A002011194B70A34091690B43936198
:1016E00010BDC046C0BBFF1F70B50E001500040042
:1016F000FFF718FF0C236343094A20009B189D60E5
:101700005E60FFF74DFFF021064B074A8900051E7A
:101710005A5002D02000FFF705FF280070BDC046D8
:10172000DCBBFF1F0000FF1F3112011170B5134D0C
:1017300007202C78002C1FD198222100520028006D
:1017400001F0AAF90123C420FF222B700C4B80006A
:101750001C635C630B4B1C605C600B4B1958914322
:101760003F3A0A431A50802252021A600D20074A5B
:10177000074901F0E9F9200070BDC046C0BBFF1F5A
:1017800000800040A0F0004000E100E0FD150111E4
:10179000FD130111F0B5136B8BB00C0002A9DBB285
:1017A000CB70CB78CE1C0090DB070DD50823116AD7
:1017B0005B1A00219BB2994206D0A08D8446E08B33
:1017C00060451FD11023D3623378DB0655D5002343
:1017D000566AA06AB1B2984230D1237F002B02D062
:1017E000E38DCB18E385002306AF98B2814249D838
:1017F000009B03A8037004230672437047602369AB
:1018000098471DE06046676A013080B2A085002FCE
:1018100005D06046385C1066013189B2CBE71766A7
:10182000FAE7E08DE78B874229D9176EA56A019701
:10183000471CE785019F2F5401339BB28B42F0D1A7
:10184000237F002B19D0E28DE38B9A4215D3200021
:10185000142200211C3001F01FF9009B03AF3B70E4
:1018600002237B700023380004933E72236998475B
:10187000012338007B70236998470BB0F0BD106ED0
:101880000690D9E7106EF8540133AEE7F0B5136B4C
:1018900087B00C0002A90500DBB2CB70CB78C81C66
:1018A000DB071FD50823116A5B1A0021DBB29942BE
:1018B00018D0A68D676AB4460136B6B2A685002F49
:1018C0003BD06646BE5D1666A78DE68BB74236D125
:1018D000616910230E7830217143D3621D4B5B1870
:1018E000002119770378DB0625D5D069C3B20193AF
:1018F00000230198E18D834224D1E38B8B421AD1DE
:10190000237B002B03D001216078FFF7D3FC002359
:1019100003AE35700B352377A362E385E8B202335B
:10192000737001F091F8300023699847012330006B
:1019300073702369984707B0F0BD1766C4E701319B
:10194000C9B2B4E7176EA66A481C0133E085DBB262
:101950007754CEE7F0BCFF1FF8B50F4B0F00C5184A
:101960006B1E9D411600040001F016F93022002381
:10197000EDB26A4309498918DAB2974202D801F0F8
:10198000B3F8F8BD8A7A072A03D8F25C22660133DD
:10199000F2E75A00B25AF9E700A0FFBFF0BCFF1F00
:1019A000074910B54B69002B06D0087E054A002870
:1019B00003D00020FFF7EEFE10BDFFF767FFFBE747
:1019C000F0BCFF1F00600040084B10B55A6C002AA5
:1019D00008D048331B7801200549064A002B02D065
:1019E000FFF7D8FE10BDFFF751FFFBE7F0BCFF1F6C
:1019F00020BDFF1F00700040F8B51C0006AB0700BB
:101A0000150008001E78002F0FD11021FFF7ACFD44
:101A100011212800FFF7A8FD12212000FFF7A4FDE7
:101A200013213000FFF7A0FDF8BD012FFCD11421D8
:101A3000FFF79AFD15212800FFF796FD16212000DB
:101A4000FFF792FD1721ECE703005A1E9341064A67
:101A50001B039B181F220E3010401E3A8240034980
:101A6000CA670022DA6270470060004004E100E0CB
:101A7000037810B51A00541EA24111241B4812030A
:101A800021401218D1621A49824221D1EE20194A0E
:101A900080000A501F2101220E3319408A4003247E
:101AA00015491C400A60FF22E400A2408021D24375
:101AB000A140D8B21B060ED50F230340083B0F48A8
:101AC0009B089B001B18D86902400A43DA6110BDCD
:101AD000EF200B4ADCE7C024830807489B001B1853
:101AE000A400185902400A431A51F0E70060004070
:101AF0000000FF1FA119011100E100E000ED00E06E
:101B0000C9190111037808485A1E9341074A1B035B
:101B10009B1800221A721A68090202400A431A60CE
:101B200001221A727047C046FFFCFFFF00600040B0
:101B3000007810B503005A1E9341094A1B039B18F5
:101B400000220F241A721A68A2430A431A60012263
:101B50001A722F324243034B9B18997210BDC04634
:101B600000600040F0BCFF1FF0B589B003930EABDE
:101B70001B880C0002930FAB1B8817000493019085
:101B80000623002800D1CFE103780093009A0623B2
:101B9000012A00D9C8E1A04A5369834204D0516C9C
:101BA0001223814200D0BFE1029904980623014329
:101BB00000D1B9E1032C00D9B6E1002F00D1B3E187
:101BC00000992A334B43D218167F1123002E00D0E0
:101BD000AAE10D006B1E9D41904B2D032100019841
:101BE000ED18FFF78FFF012C08D9049B002B05D0BF
:101BF000013B9BB22E72AB8001232B723023009AE3
:101C0000854C5343E418237B002B07D000216078D8
:101C1000FFF750FB00216078FFF770FC019B009AF2
:101C20001878302353437C4EF618F47A002C00D0F9
:101C3000F6E0049B029E0593431E9841774B0503F3
:101C4000ED1800F039FF02902B00022228331B7898
:101C5000134276D0002E00D12CE108232A6A9A1A6A
:101C6000B24200D9320001996B4B087830214143D0
:101C70005B189B7A501E072B56D8072860D83B5D0F
:101C80002B6600F091FF5C040910192431403B19C8
:101C90005B782B66023453E03B19597829669B78B0
:101CA0002B6603344CE03B195978296699782966EC
:101CB000DB782B66043443E03B1959782966997820
:101CC0002966D97829661B792B66053438E03B19DB
:101CD0005978296699782966D97829661979296603
:101CE0005B792B6606342BE03B1959782966997885
:101CF0002966D978296619792966597929669B79DF
:101D00002B6607341CE03B195978296699782966B7
:101D1000D9782966197929665979296699792966C0
:101D2000DB792B6608340BE0072809D8630000F044
:101D30003BFF0413181F2833404FFB5A2B66013416
:101D4000B61A049B002B00D0B8E0002E00D0C7E0EC
:101D5000FA260124B60055E0F95AFB185B8829667B
:101D600097E7F95AFB18296659889B88296697E7EF
:101D7000F95AFB182966598829669988DB882966EB
:101D800097E7F95AFB1829665988296699882966C0
:101D9000D9881B89296697E7F95AFB18296659885B
:101DA000296699882966D988296619895B892966EF
:101DB00097E7F95AFB182966598829669988296690
:101DC000D98829661989296659899B89296697E7DF
:101DD000F95AFB1829665988296699882966D9888D
:101DE000296619892966598929669989DB892966AD
:101DF00097E7286E1870013366E0029800F09CFEA9
:101E0000B04275D82B0028331B781A002240234299
:101E1000F3D1140075E0C046F0BCFF1F0060004025
:101E2000FFF712FE328C029903238A427CD3706A38
:101E3000002879D000230A003900B38500F0B4FDF2
:101E40002B0028331B789B0726D5039B002B00D043
:101E5000B362019B18780B30C0B200F0ADFE6B4648
:101E60001989029B082B00D9082130220098304C98
:101E70004243A218506A8BB2C9B2002818D0908D84
:101E80001B1893853A002800FFF766FD3023009A5F
:101E90005343E418029BE38330220099244B4A43C6
:101EA0009B180122112101981A77FFF7E1FD3AE012
:101EB00006AAE8E7049B002B00D149E76B6A002BD8
:101EC0000AD06A6A039BD1188B4292D1039B9B185C
:101ED0000393059B9B1A0593059B002B00D137E7C5
:101EE000029800F029FEFA239B00984200D8ABE646
:101EF00000F0E2FD0F4B01000F4A180000F0A6FBB6
:101F00000D24302200990A4B4A439B181A7B002A61
:101F100006D01A7E002A03D101215878FFF7CAF9AA
:101F20000D23002C00D10023180009B0F0BDC046DD
:101F3000F0BCFF1F802C01112A3501110200F8B5F9
:101F40000620002A15D01378012B12D816484469B0
:101F5000944203D0446C122094420AD15A1E9341F9
:101F6000124A1B039B181D0028352A78920701D4BA
:101F70000020F8BD196600F09FFDFA270400012635
:101F8000BF002B783342F3D0200000F0D5FDB842DB
:101F9000F7D900F091FD064B0100064A180000F049
:101FA00055FB0D20E5E7C046F0BCFF1F0060004078
:101FB000A42C01111835011184B0F0B587B00600CA
:101FC0000DAC06200D910E920F93002E75D0337834
:101FD0000393012B71D830220399404B4A439B183D
:101FE0005D690B30002D68D108000B30C0B200F0E5
:101FF0004BFDE778A3786278217830780097FFF777
:10200000FBFC0E9B0493237A677A059300F04CFD4A
:1020100033788446012B56D0002B53D1304C01210C
:1020200025720D009D400433DBB299402D48BF015D
:10203000C26A2A430A43C262059A238812021743DE
:10204000294A13401F43049B278058081900604405
:1020500000F06AFD254A031C80B2904235D9244B1A
:102060001B889BB2636104230022A361033BE361ED
:10207000E262237423720DAC3000A17AFFF758FDA1
:102080003022039B21005A439446144DAB1885C956
:1020900085C305C905C3614600236A1813775661D5
:1020A000E37A002B16D010213000FFF7E1FC30233B
:1020B0000020039A5343ED18287607B0F0BC08BC03
:1020C00004B018472B000B4CA9E79AB2022AC8D2D9
:1020D0000223C6E73078FFF7B7FCE8E7F0BCFF1F44
:1020E00000600040003000403FFCFFFFFEFF0000AA
:1020F0001635011100700040F8B50600012826D001
:102100000B220827164C01239340164A164DD3671D
:102110007301ED18287C0021FFF7CCF80021687CC2
:10212000FFF7C8F800258023380023732571257038
:1021300025732572656000F097FC380000F0DCFC28
:102140000A4BAE4207D1EB2292009E50F8BD1122FD
:102150001927074CD7E7F12292009D50F6E7C046B9
:102160000040004004E100E0D4BDFF1F0000FF1F5D
:1021700000900040F0B587B0050000F095FC049099
:102180002800FFF7B9FF012D00D17DE005230427CA
:1021900008260393444C06330193444B6A019B1871
:1021A0001A7CFF2A02D15B7CFF2B6BD0300000F041
:1021B0006BFC300000F058FC3C4B6A0102936B0151
:1021C0000593029B02219E18307CFFF783F80221C1
:1021D000707CFFF77FF839000027307CFFF7C4F9E7
:1021E000707C0399FFF7C0F927737169049B18117C
:1021F0004B08C01800F098FC802327612373030A62
:10220000DBB22371F37EC0B22070BB4244D01B23EB
:102210002373029B6A019B181A7E0123002A3DD07A
:1022200087222272636062687F3313436A01944697
:102230006360029B63449B7E002B03D00223626891
:10224000134363601A4A002D2AD1EB21194B8900F0
:102250005350019B184A9B089B009B180322019C2A
:10226000C0202240FF24D200944080001958A1438E
:102270008024944022000A431A500123019A93407B
:102280000D4A136007B0F0BD092308270393DB193B
:1022900019260A4C019380E70323B9E72272C5E7A8
:1022A000F121074BD3E7C04600400040D4BDFF1FDB
:1022B0000000FF1F591AFF1F00E100E000900040DE
:1022C000991AFF1F10B50020FFF754FF10BD10B57D
:1022D0000120FFF74FFF10BDF0B587B005930CABA1
:1022E0001D78174F6E01F35D029002AC112003912F
:1022F0000492002B1ED1637A0C380193002B19D164
:1023000019002022F01900F0C7FB0E4BF31807CC80
:1023100007C39C466246236828001360FFF72AFF24
:102320000123F355002D07D129000820064A00F0AB
:102330000BFC002007B0F0BD1920044A0199F6E714
:10234000D4BDFF1FE4BDFF1FC5220111CF22011123
:10235000F0B5504B87B0009343010193009B1500EB
:1023600042019E18B37E04000F00002B59D00620B6
:10237000002D1DD000291BD033790338002B17D036
:102380007289954214D8012B14D033895B1993427A
:102390000EDC00F001FC3389F0682A00C018390017
:1023A00000F002FB3389EB18338100F09DFB002025
:1023B00007B0F0BD2A00F06800F0F6FA0023F380C1
:1023C00002333371F16835812B1C102D00D9102395
:1023D000651E6A425541A0220220D2016D4215407D
:1023E0002D4A013BAD186A682C4E82436001844639
:1023F0006A60009A9BB2624406321088013B471C17
:102400001780085C9BB22870B342F6D10820002CDC
:1024100000D0192000F0D0FB02236A6813436B60E0
:10242000C5E7013C62425441A02203930123D2013B
:1024300064421440184A1A48A418E26F1100194067
:102440001A420FD120221648002D12D140221449E1
:102450000595237D1342AAD1059B581C05908B42FC
:10246000F7DD04E0039A511C03918242E5DD0D2063
:102470009EE70491237D134205D03B78013DADB228
:1024800023700137E0E7049B5E1C04968342F1DD74
:10249000EDE7C046D4BDFF1F00400040FFFF000035
:1024A000A086010010B50A0001000020FFF750FFD0
:1024B00010BD0000F0B599B01E9F1400614E01914F
:1024C00003937B0600D4604E10233A001A40049216
:1024D00001221F424BD09743DB1806AA53700022FB
:1024E00006AB02331A70BA0705D5002844DA2D224C
:1024F00040421A70013C20233A001A4005921F42C4
:1025000003D0019B102B40D1023C002843D1302244
:10251000012507AB1A70039B2E009D4200DA1E00B6
:102520001123A41B1F4207D12700002F41DCE343E6
:10253000DB17621E1C40141B06AB981C0378002B93
:1025400002D00121FFF7AEFF059B002B09D0019BB4
:10255000082B37D106ABD81C302301210370FFF7BD
:10256000A1FF049B2700002B42D030274FE02023FF
:102570001742B2D01033B0E77A0702D52B221A7077
:10258000B8E73A07B7D52022F9E7019B083B5A4242
:102590005341E41AB9E700250199029000F00CFAC2
:1025A000725C07A94A55019B029A01359342F3D9FF
:1025B000B1E706ABD81C202301210370013FFFF7D0
:1025C00071FFB2E7019B102BCBD106AA2033D01CA0
:1025D0000121D370FFF766FF782306AA0121D3708B
:1025E000D01CBCE7012106AB5818FFF75BFF013F89
:1025F000002FF7DCE343DB17621E1C40141BB4E71B
:1026000006ABD81C01210770FFF74CFF013EAE421C
:10261000F6DC013D04D22025002C0ADC19B0F0BD07
:1026200006ABD81C07ABEB5C01210370FFF73AFF48
:10263000EFE706ABD81C01210570013CFFF732FF24
:10264000EAE7C046EA2C0111C52C01110FB40021A4
:10265000F0B589B00EAC40CC039107943378002BD1
:102660000AD1002903D0039889B2FFF71BFF09B0F4
:10267000F0BC08BC04B01847252B08D0039B002BE6
:1026800001D100210396370001317E1CE6E70029C5
:1026900005D0039889B2FFF705FF002303930022BA
:1026A0007378771C2B2B2DD00DD8202B2CD0232BDF
:1026B0002CD02A2B33D120CCB71C002D12DA1A3B98
:1026C0006D421A430EE02D2B18D0302B20D018006D
:1026D000303800250A210928EBD83B78180030381B
:1026E000092817D93B782E2B57D17B78791C1800F5
:1026F000303809284CD800230A2717E010233E0061
:102700001A43CDE70423FAE70823F8E72023F6E786
:102710000123F4E74D43ED180137303DDDE7012596
:102720006D42DFE77B431B180131303B0878060020
:10273000303E092EF6D9D8430F00C0170340397830
:10274000682903D0202081434C2900D101373E78ED
:10275000782E09D8622E26D80021412E95D0582EE9
:1027600000D1B8E0252E07D00B2004ABC0182523DC
:1027700001210370FFF796FE3978002900D1B9E0F6
:102780000B2004ABC01801700121FFF78BFE4BE05A
:102790002A2B05D108CCB91CCDE701235B42CEE73B
:1027A0000F000023CBE7300063381528DAD800F09B
:1027B0000BF916009D00D9FFD9FFD9FFD9FF9D0065
:1027C000D9FFD9FFD9FFD9FF3B00A3008600D9FF6D
:1027D000D9FF4700D9FF9F00D9FFD9FF9400D20647
:1027E00015D42E0009E0202204ABDA720B2304AAD0
:1027F0009B1801211800FFF755FE013E002EF2DC68
:1028000001236A1E002D00DC1D005D1B551908CC3C
:1028100004AAD3720B239B1801211800FFF742FE74
:102820002026013D002D01DC00212EE704ABDE72E5
:102830000B2304AA9B1801211800FFF733FEF0E7D1
:10284000210040C90491002E00D12C4E3400F31811
:102850002178002901D09C421AD1A41BD2060ED4A3
:102860000595059B9C4215DBE10FEB17A5424B41FB
:102870000021DBB26A1E8B4200D0611B551830006C
:10288000A1B2FFF70FFE2026A5420FDC049CCBE788
:102890000134DDE70B2004ABC018202301210370B5
:1028A000FFF700FE059B013B0593DAE70B2004AB25
:1028B000C01801210670013DFFF7F4FDE4E7691C33
:1028C00002D1012109350A43009210212A0001CCCE
:1028D000FFF7F0FDA8E740210A4310212068261DDC
:1028E00000922A00FFF7E6FD34009DE702210A432B
:1028F0000A21F3E7013FC8E60821EFE70F2D011198
:1029000030B587B002AA1100064B31CB31C11B682C
:102910000B60002102980091049A0399FFF7DCFCF8
:1029200007B030BD4035011110B504000C4800F06F
:10293000EBF80C48A16B00F0E7F80B48E16B00F0F6
:10294000E3F80A48216C00F0DFF8094B09481968E0
:1029500000F0DAF8084B1B68002B00D09847FEE720
:10296000162D01112C2D01113B2D01114A2D0111A4
:1029700004ED00E0592D011114BEFF1F002307B51F
:1029800001A80193FFF7D0FF044A05480021121A5D
:1029900000F082F8FEF748FBFEE7C04618BEFF1FB6
:1029A000F43AFF1F0000000001B40248844601BC55
:1029B000604700BF810E000001B40248844601BC9C
:1029C000604700BF090E000001B40248844601BC04
:1029D000604700BFA135FF1F01B40248844601BC17
:1029E000604700BFEDA5000001B40248844601BC69
:1029F000604700BF7D2EFF1F01B40248844601BC22
:102A0000604700BFE530FF1F01B40248844601BCA7
:102A1000604700BFB14E000001B40248844601BCCB
:102A2000604700BFAD2CFF1F01B40248844601BCC3
:102A3000604700BF014C010001B40248844601BC5C
:102A4000604700BF154D010001B40248844601BC37
:102A5000604700BFD52EFF1F01B40248844601BC69
:102A6000604700BF4935FF1F01B40248844601BCDE
:102A7000604700BF1934FF1F01B40248844601BCFF
:102A8000604700BFED4A010001B40248844601BC22
:102A9000604700BF9933FF1F01B40248844601BC60
:102AA000604700BFB70E000001B40248844601BC75
:102AB000604700BFD1A5000001B40248844601BCB4
:102AC000604700BF0135FF1F01B40248844601BCC6
:102AD000604700BF8534FF1F01B40248844601BC33
:102AE000604700BFADAE000001B40248844601BC9F
:102AF000604700BF9DA9000001B40248844601BCA4
:102B0000604700BFD933FF1F01B40248844601BCAF
:102B1000604700BFE53A010001B40248844601BCA9
:102B2000604700BFC9A9000001B40248844601BC47
:102B3000604700BF090E000001B40248844601BC92
:102B4000604700BF0D35FF1F01B40248844601BC39
:102B5000604700BF1D2FFF1F01B40248844601BC1F
:102B6000604700BF456B010001B40248844601BCC8
:102B7000604700BF2146010001B40248844601BC01
:102B8000604700BF3535FF1F01B40248844601BCD1
:102B9000604700BFBD30FF1F01B40248844601BC3E
:102BA000604700BF75A9000001B40248844601BC1B
:102BB000604700BF8D35FF1F01B40248844601BC49
:102BC000604700BF952EFF1F01B40248844601BC38
:102BD000604700BF7135FF1F01B40248844601BC45
:102BE000604700BF3D4B010001B40248844601BC70
:102BF000604700BF7533FF1F01B40248844601BC23
:102C0000604700BFA54F010001B40248844601BCE3
:082C1000604700BF855201007E
:102C1800504F4E472047414D4500777269746520F3
:102C28006C617374206E6F742D41434B2070616327
:102C38006B6574200A007772697465206C6173741F
:102C4800206E6F74207472616E736D697420706188
:102C5800636B6574730A00777269746520206E650A
:102C6800772064617461207061636B65747320748C
:102C78006F204649464F0A005B256C645D2025732A
:102C88003A2068616C5F7370695F786D69745F7012
:102C98006F6C6C696E6720544F0A0A005B256C6480
:102CA8005D2025733A2068616C5F7370695F736596
:102CB8006E645F6279746520544F0A0A00303132BD
:102CC80033343536373839616263646566676869F5
:102CD8006A6B6C6D6E6F70717273747576777879D4
:102CE8007A0030313233343536373839414243444B
:102CF80045464748494A4B4C4D4E4F505152535404
:102D080055565758595A003C4E554C4C3E005B4856
:102D1800617264206661756C742068616E646C65AC
:102D2800725D0A004C522020203D20307825303832
:102D3800780A0050432020203D203078253038780C
:102D48000A0050535220203D203078253038780A28
:102D58000049435352203D203078253038780A0006
:102D680004E010021C07123732292D29252B3900BF
:102D7800010310E110031D07062E2C292D2E2E37D6
:102D88003F0000021013800A29800A022A04000268
:102D980000812B04000100A00F01800A11800AB1F4
:102DA80003012C2DB203012C2DB306012C2D012C6F
:102DB8002DB40107C003A20284C101C5C2020A00E2
:102DC800C3028A2AC4028AEEC5010E20003601C851
:102DD8003A01050016131400C0E1E40001000700E1
:102DE8000000000000000000F4300111FC2D01116A
:102DF800207E0B00000000000B0001000000020B09
:102E08000B04F600030006050B02F6000700070C8A
:102E18000B02F6001200080C0B01F6001E00070B4F
:102E28000B02F6002800070A0B02F7003100030521
:102E38000B04F6003300020D0B05F6003700020DF7
:102E48000B04F6003B0007070B02F60042000707D9
:102E58000B02F800490003050B02FF004B000901B3
:102E68000B01FB004D0002020B04FF004E00070D92
:102E78000B02F5005A00070B0B02F6006400050B65
:102E88000B03F6006B00070B0B02F6007500080B2E
:102E98000B01F6008000060B0B03F6008900070BF8
:102EA8000B02F6009300070B0B02F6009D00070BC0
:102EB8000B02F600A700070B0B02F600B100070B88
:102EC8000B02F600BB0002080B04F900BD00030B5F
:102ED8000B03F900C20008080B01F800CA00090436
:102EE8000B01FA00CF0009080B01F800D800070A07
:102EF8000B02F700E100080C0B02F600ED000B0ACC
:102F08000B00F700FB00090A0B01F7000701090A8B
:102F18000B01F7001301090A0B01F7001F01090A49
:102F28000B01F7002B01090A0B01F70037010A0A08
:102F38000B01F7004401090A0B01F7005001050ACB
:102F48000B03F7005701080A0B02F7006101090A91
:102F58000B01F7006D01080A0B02F70077010B0A55
:102F68000B00F7008501090A0B01F7009101090A16
:102F78000B01F7009D01080A0B01F700A701090DD5
:102F88000B01F700B601090A0B01F700C201070A95
:102F98000B02F700CB01090A0B01F700D701090A58
:102FA8000B01F700E3010B0A0B00F700F1010B0A14
:102FB8000B00F700FF01090A0B01F7000B02090AD1
:102FC8000B01F7001702070A0B02F7002002020D97
:102FD8000B05F6002402070D0B02F5003002020D66
:102FE8000B04F600340207050B02F60039020B0148
:102FF8000B0002003B0203030B03F5003D02090826
:103008000B01F9004602090B0B01F60053020708F1
:103018000B02F9005A02090B0B01F60067020808B7
:103028000B01F9006F02060B0B03F6007802090B7F
:103038000B01F9008502090B0B01F6009202070A41
:103048000B02F7009B02050D0B03F700A402080B07
:103058000B02F600AF02070B0B02F600B9020908D3
:103068000B01F900C20209080B01F900CB0209089B
:103078000B01F900D402090B0B01F900E102090B5D
:103088000B01F900EE0207080B03F900F502070827
:103098000B02F900FC02080A0B02F70006030808F5
:1030A8000B01F9000E0309080B01F90017030908C1
:1030B8000B01F900200309080B01F9002903090B8A
:1030C8000B01F900360307080B02F9003D03030D55
:1030D8000B04F6004203010D0B05F6004403030D33
:1030E8000B04F600490307030B02FA00AAA80CED2B
:1030F8002492482448912FE4897F28512240083E91
:103108006240300E0181C3BE08087112238023B8C3
:103118000E224470388102061A6546C8ECE9245A22
:10312800AAA940A9555A8010224BE3051100102086
:1031380047F10204006B48FF00F0020810608104A8
:10314800082041020800388A0C183060C18288E0E3
:103158002728421084213E388A08102082086103FB
:10316800F87C0602021C06010101423C18A2928A60
:1031780028BF0821C07C8103E44040810388E01E09
:1031880041040B98B0C1C288E0FE040820408204C4
:10319800082040388A0C14471141838CE0388A1C77
:1031A8001868CE810413C0F00F6C00D2D20003045B
:1031B800186060180403FF80001FF04018030060C7
:1031C8002060C0803D840830C2000000303C468248
:1031D8008EB2A2A29F8080403C3C01402809011089
:1031E800420FC104409E3CFE21904867E2090281DB
:1031F80041FF803EB0F0300804020080608F80FEFE
:10320800219068140A050283437F00FF20900887F5
:10321800C221008140FFC0FFA0500887C221008062
:103228004078001E986C0A008020F80B026087C066
:10323800E3A0904827F20904824171C0F9084210BE
:103248008427C01F02020202028282C678E3A1110B
:103258000905832108844170C0E040404040404156
:103268004141FFE0EC194528A4A494911202405C66
:103278001CC3B0944A249249148A4370801E31902A
:1032880050180C060282630F00FE434141427C4005
:103298004040F01C319050180C060282631F04074E
:1032A8009230FE2190482423E110844170C03ACD29
:1032B8000A030180C1C778FFC46221008040201042
:1032C800081F00E3A090482412090482220E00F18E
:1032D800E81082104210220480500C0080F1E809A6
:1032E800112544A8550CA18C318430E3A088828034
:1032F80080C090444171C0E3A08882814040201082
:10330800081F00FD0A208104102183FCEAAAAAC034
:10331800808103020404080810102020D55555C0E8
:103328001051222820FFE088807E008047EC140A94
:103338000CFBC020100BC61205028140B0B7803AC2
:103348008E0C0810109E03008047A4340A050281E1
:10335800218F603C4381FF8080613E3D043E4104F3
:1033680010410F803DA1A0502814090C7A01018753
:1033780080C020100BC6320904824120B8E0100139
:10338800C08102040811FC103E10842108423F004D
:10339800C040404F445870484442C77020408102A2
:1033A80004081023F8B7646231188C4623915E3103
:1033B800904824120905C73E31A030180C058C7CB2
:1033C800DE309028140A0584BC402038003DA1A0B6
:1033D800502814090C7A010080E0CEA1820408105C
:1033E8007C3A8D0B80F070DE4040FC40404040400D
:1033F800413EC34141414141433DE3A090844220C5
:10340800A05010E3C0924B2592A99844E3310501DE
:1034180001411105C7E3A090844240A06010100844
:103428003E00FD0820820810BF2924A24926FFF883
:1034380089248A492C612430000201030203030015
:103448000400050206020700080009000A000B0034
:103458000C000D000E000F001000110013001400E6
:10346800150016000200030004000500060007000E
:10347800080009000C000D0016000200F1590000B8
:1034880041460100000D000E001000110013001449
:1034980001070108010A010B011C011D02040205B4
:1034A800020702080219021A021C021D0301030284
:1034B8000317000201000504000807000B0A0017A3
:1034C80016001D1C010201010504010E0D01111059
:1034D800011413011716011A19020201020B0A023C
:1034E8000E0D021110021413021716030504030827
:1034F80007030B0A030E0D0001020307090A0B0E4E
:103508000F101112141718191A1B1F202122FEFF61
:1035180068616C5F7370695F73656E645F6279740C
:10352800650068616C5F7370695F786D69745F705E
:103538006F6C6C696E6700000506FFFF00C2010032
:0835480001000000000000007A
:020000041FFFDC
:1000000000000000851101118434011182340111B6
:100010001CBBFF1F000000000000000000000000EB
:1000200000000000000000000000000000000000D0
:1000300000000000000000000000000000000000C0
:1000400000000000000000000000000000000000B0
:1000500000000000000000000000000000000000A0
:100060000000000000000000000000000000000090
:100070000000000000000000000000000000000080
:100080000000000000000000000000000000000070
:100090000000000000000000000000000000000060
:1000A0000000000000000000000000000000000050
:1000B0000000000000000000000000000000000040
:1000C0000000000000000000000000000000000030
:1000D0000000000000000000000000000000000020
:1000E0000000000000000000000000000000000010
:1000F0000000000000000000000000000000000000
:1001000000000000000000000000000000000000EF
:1001100000000000000000000000000000000000DF
:1001200000000000000000000000000000000000CF
:1001300000000000000000000000000000000000BF
:1001400000000000000000000000000000000000AF
:10015000000000000000000000000000000000009F
:10016000000000000000000000000000000000008F
:10017000000000000000000000000000000000007F
:10018000000000000000000000000000000000006F
:100190000931FF1F692FFF1FC16601000000000029
:1001A000000000000000000000000000000000004F
:1001B000000000000000000000000000000000003F
:1001C000000000000000000000000000000000002F
:1001D000000000000000000000000000000000001F
:1001E000000000000000000000000000000000000F
:1001F00000000000000000000000000000000000FF
:1002000000000000000000000000000000000000EE
:1002100000000000000000000000000000000000DE
:1002200000000000000000000000000000000000CE
:1002300000000000000000000000000000000000BE
:1002400000000000000000000000000000000000AE
:10025000000000000000000000000000000000009E
:10026000000000000000000000000000000000008E
:10027000000000000000000000000000000000007E
:10028000000000000000000000000000000000006E
:10029000000000000000000000000000000000005E
:1002A000000000000000000000000000000000004E
:1002B000000000000000000000000000000000003E
:1002C000000000000000000000000000000000002E
:1002D000000000000000000000000000000000001E
:1002E000000000000000000000000000000000000E
:1002F00000000000000000000000000000000000FE
:1003000000000000000000000000000000000000ED
:1003100000000000000000000000000000000000DD
:1003200000000000000000000000000000000000CD
:1003300000000000000000000000000000000000BD
:1003400000000000000000000000000000000000AD
:10035000000000000000000000000000000000009D
:10036000000000000000000000000000000000008D
:100370007D290111000000000000000000000000C5
:10038000000000000000000000000000000000006D
:10039000000000000000000000000000000000005D
:1003A000000000000000000000000000591AFF1FBC
:1003B000000000000000000000000000000000003D
:1003C000000000000000000000000000000000002D
:1003D000000000000000000000000000000000001D
:1003E000000000000000000000000000000000000D
:1003F00000000000000000000000000000000000FD
:0818380020C2FF1F4118FF1F31
:10184000024981F3088802F02FF9000020C2FF1F2F
:1018500010B501F0D1FF072804D0122808D00228C3
:1018600008D010BD044A0420136B01331363F8E75A
:101870000220F6E71420F4E730BBFF1FF8B507009D
:101880000C0026002500503630785135002804D150
:101890000300287058342370F8BD2978CA00481E08
:1018A0008141A3183800A25C5B68C9B2FFF7D0FF82
:1018B00000280DD12B78DA00A218013350602B706C
:1018C0003378044A013B3370136A01331362D8E75B
:1018D0000123DFE730BBFF1F5C234343074910B5FB
:1018E000C9180B0058331B78012B05D1FFF7C6FF31
:1018F000034A936A0133936210BDC04664BBFF1F65
:1019000030BBFF1F10B501F0D7FE064A01211300BE
:1019100010CB4942D967044B136002F06DF82000E8
:1019200010BDC04600E100E01000100010B504003A
:1019300001F0C2FE024B1C6002F05EF810BDC04612
:1019400000E100E0431E5A425341A022F0B5D2010B
:101950005B421340154D164A40019B182A18127E0F
:101960008BB00191002A1BD01A000832D46F0022DC
:10197000E6B206AFE4B294420EDC2818C369002B2D
:1019800008D0019902AA117106AA049202AA16733C
:1019900003A898470BB0F0BD1978B9540132EAE7B3
:1019A0001A7D1A7806AB01261A70E6E7D4BDFF1F30
:1019B00000400040F0B5254B04004001C25C85B0FA
:1019C000002A2BD01A18117E002927D0917E0029D9
:1019D00024D01179022921D11689D788D168F51B25
:1019E000ADB22A1C102D00D9102292B2BE4217D1DE
:1019F0001818012303710023C269C38003819A422E
:101A000006D06846032103730171029301A8904731
:101A10000820002C00D0192001F05CFA05B0F0BDC0
:101A2000013C65426C41A0256442ED012C40084D0B
:101A30001B186419074D0633013A92B2AA42EDD041
:101A40001888461C1E80085C2070F5E7D4BDFF1F77
:101A500000400040FFFF00000F220E4B10B59868B9
:101A6000104002380A280BD801F090FD0D0A0B0A2D
:101A70000A110A0A0A0A060002210020FFF762FF83
:101A800010BD0121F9E70020FFF794FFF8E7DB6FB5
:101A9000F6E7C046004000400F220E4B10B5986894
:101AA000104002380A280BD801F070FD0E0A0B0A0C
:101AB0000A120A0A0A0A060002210120FFF742FF61
:101AC00010BD01210800F9E70120FFF773FFF7E7D8
:101AD000DB6FF5E700900040564B70B51B68012B9B
:101AE00003D1554A936D0133936501F0EDFD534BDE
:101AF000534A1860534B544C1A600123534A1360E5
:101B0000534A13602378002B06D0062251495248CD
:101B100001F0C2FD00232370504A514B10681B781E
:101B2000C1B2002B0ED14F4CC0B223785BB2002B58
:101B30004FDB237824785BB264B21B0424021B19A8
:101B40001B1813600B1C50294ED95023464A474995
:101B50001078DBB2FF2202284BD10868444C454D77
:101B6000267890432A78964254D9227824782E7881
:101B7000023B5D10A31B6B435201D31A10335B1160
:101B80001843086001F010FE031F012B45D83A4BA3
:101B90001B78002B06D0394B1B78002B02D000207D
:101BA00001F0DAFEA122364B92009978354B4A4378
:101BB0001B689B18832292009B181B78033B012B08
:101BC00003D8AF20400001F087FE01222E4BDA82BD
:101BD00070BD237824785BB264B2FF33FF341B04FA
:101BE00024021B190138ABE7CAB2022AAED2022383
:101BF000ACE70868254C264D267890432A78964213
:101C000008D9227824782D78023B5B10641B63434B
:101C10005201B2E72378DBB2B2E70228D5D11D4BDF
:101C20001B78013B022B03D91B4B1B78022BCCD119
:101C30006C20C8E79809FF1FFC0FFF1F24BBFF1F84
:101C4000FF3F00001410034028BBFF1F0C1003408F
:101C500000100340D50BFF1F7211FF1FB40003409B
:101C60008C09FF1F680AFF1F490AFF1F94000340E9
:101C7000460AFF1F470AFF1FF908FF1F2209FF1F1F
:101C8000300DFF1F3409FF1FBC0BFF1F440AFF1F4D
:101C9000450AFF1F1C09FF1F2309FF1F10B501F094
:101CA00043FE0022014B1A8010BDC04620BBFF1F1F
:101CB00010B501F0E1FEA121054A89009478054A9A
:101CC00061431268044B5218528C1A8010BDC046F2
:101CD000300DFF1F3409FF1F20BBFF1F10B50D4B38
:101CE0000D4A9978A1239B004B431268D218531DCB
:101CF000D97F0A4B1B88994209D2441C07D0C828B7
:101D000005D0D2695B1A5A43054B5343C01801F002
:101D100093FD10BD300DFF1F3409FF1F20BBFF1FB7
:101D20007102000070B5244D2B68002B28D001F003
:101D3000F3FD2B68D8402B680400002B27D001F05E
:101D40004BFD2B68D8401D4B1D4A9978A1239B0061
:101D50004B431268D118D25C91239B00002A20D0FB
:101D6000CA580132CA50174B17491B68086883428A
:101D700014D3D23B181A012A1AD0144B186070BD24
:101D800001F0CAFD124B196801F0C6FCD3E701F05F
:101D900023FD0F4B196801F0BFFCD4E70D495B1818
:101DA000E8E7CA500C4B1B68DB68E418201AE4E72C
:101DB000F530FF30E1E7C0461C08FF1F300DFF1F64
:101DC0003409FF1F9C09FF1F24BBFF1FA009FF1F31
:101DD0001808FF1F2DFF3F002CBBFF1F70B504002C
:101DE0000D00282916D10300A433C2881B889B1A32
:101DF0000B4A9BB293420DD906006A360522310088
:101E0000653001F049FE002804D13100200001F0C6
:101E100033FC70BD2900200001F0BEFCF9E7C0468C
:101E2000FE7F0000F8B50500012001F0EDFD134C28
:101E3000A36AA26A9342FBD1114E336001F054FDB4
:101E40001049030008601048426894460F4A17681A
:101E50000022BC4501D24268BA1A0D4802603268BD
:101E6000AD18A422E562606A520302436262094A25
:101E70001278002A01D00F3B0B60F8BD00F0004043
:101E8000340AFF1FE408FF1F28100040180AFF1F34
:101E90001C0AFF1F1C09FF1F70B580241025E405D4
:101EA000A3682B43A36001F08FFBA368AB43A3603F
:101EB00070BD0000F7B5160080221C001023D2056B
:101EC0000191916805000B43936000225A4BD73073
:101ED0001A6001F051FC9D232A002F009B00EB5853
:101EE000CA3201210092FC37002B01D00021009A58
:101EF000386801F081FB2900009BCB311A784F4BE9
:101F0000D3351A604B780A781B0213438A7812047F
:101F10001A43CB781B061343494A1BBA13604B790B
:101F20000A791B0213438A7912041A43CB793100D0
:101F30001B061343434A1BBA13606B782A781B02B3
:101F40001343AA7812041A43EB781B0613433E4A44
:101F50001BBA1360019A330213433C4A13603C4B93
:101F600022001B1B9C4603293DDCB3089A0013008A
:101F70005142B21A032A46D1354AE018511A8278E2
:101F80004078120400020243E05C043302430A601A
:101F90000022FF2B4BDDF0222E4B12011A600F2284
:101FA0002D4B1A602D4A1368002BFCD00023224AC7
:101FB00027491360091B321D0B191B68043A180AC4
:101FC00023706070180C1B0EA070E3700434002A9C
:101FD000F2DC802210213B68D20501333B6093681C
:101FE0008B439360F7BD6346D578981893782D0698
:101FF0001B042B43157804392B43557804322D02EA
:102000002B430360AFE7022A0AD1114AE05C511A60
:10201000E2185278120202430A6004339BB2B7E717
:10202000012AB5D10A4A521AE15C1160F5E7084964
:1020300059180A600433ACE7000004403C00044037
:102040003800044034000440300004400C000440D8
:102050000001044004000440100004401400044047
:10206000F7B5150080221C001023D205009191685D
:1020700007000B4393600023654AD730136001F0DB
:102080007BFB9D233E009B00F9583B00CA36320083
:10209000FC33002900D07FE0586801F0ADFA390028
:1020A00032785C4BCB311A604B780A781B021343B1
:1020B0008A78AC4612041A43CB78281D1B061343BA
:1020C000554A1BBA13604B790A791B0213438A796C
:1020D00012041A43CB791B061343504A1BBA1360F0
:1020E0004B7A0A7A1B0213438A7A12041A43CB7A78
:1020F00021001B0613434A4A1BBA1360009A2B02A5
:102100001343484A13602200474B1B1B0093009B5C
:10211000CE785B1801938B7836061B0433430E7818
:10212000043833434E78043136023343019E336022
:102130000328ECDC0321A808431C9B0029408000F5
:1021400003292BD13849E5185E18A9786D78E35C2E
:1021500009042D022943194331600300083300218B
:10216000FF2B2DDD314B324919600F21314B1960A6
:10217000012327490B60304B19680029FCD0062148
:102180001B680B40042B20D080220020D2059368CE
:102190000A318B439360FEBD01217DE7022908D1FE
:1021A00021495D18E1184978E35C09021943296067
:1021B000D3E70129D3D11C495918E35C0B60CCE764
:1021C0001948181801600433CAE7002310490B604E
:1021D0006346002B0CDC3B00FC335A6810210132B3
:1021E0005A608022D205936801208B439360D2E726
:1021F000009B9B181B68190A13705170190C1B0E59
:10220000D37004235B4291709C440432E0E7C046E3
:10221000000004403C000440380004403400044006
:10222000300004400C00044000010440040004405D
:10223000080F0000100004401400044070B5061E92
:1022400019D002225A4B9B799343012B13D1594B3E
:102250001A78FF2A0FD15A78FF2A0CD19A78FF2AD0
:1022600009D1DA78FF2A06D11A79FF2A03D15B79DE
:10227000FF2B00D199E0504B0C201A78012A08D08E
:1022800000224E4D1A7029780B00093B042B01D80F
:10229000212070BD4B1F012BFAD9454CA37B042B89
:1022A00000D982E0A279032A00D97EE09A1ED2B238
:1022B000012A02D860881F2877D9002E56D0012E17
:1022C00073D1A0880128E3D0002907D1581E032824
:1022D00003D801F05BF9121715122E702978481EE9
:1022E000032811D80025364B1D602823237501F0E3
:1022F0003BFBA84227D0A580CAE702212970EDE761
:102300000421FBE70321F9E707390129C0D82D494A
:102310000968C96A8906BBD52B4908780028B7D156
:10232000012A01D9002BB3D102230B708021274D44
:10233000263389012878237501F0E6F98021287871
:10234000890101F0A1F90123A380214B1B78002B07
:102350000AD0FA2280211F4B92001B8809025A439F
:102360001A4B187801F038FB002092E701F0A4F92D
:102370002B78A680073B012B03D917482E7001F05C
:1023800073FA114B114C1A78002A06D080210022D2
:10239000207889011A7001F0B7F901F02DFB802136
:1023A0002078090201F0B0F9DEE7122071E7C0469B
:1023B000A60BFF1F6B09FF1F1A09FF1F1C09FF1F38
:1023C0004809FF1F2CBBFF1F2309FF1F1B09FF1F0D
:1023D0002109FF1F2C09FF1F0010004010B5002924
:1023E00001D001F041FB10BDF7B5644B0191997824
:1023F000A1239B004B43624A060014681022E41894
:10240000D6235B00E0583623FF33E35C0027934379
:10241000222B41D15B4B0F3A1A600760012501F076
:1024200093F9019B1880E8235B00E35C002B01D04B
:10243000B3425EDD0023544FFB70AD33FF33E358EE
:102440001A68002A03D09B88DB439B071DD03823E2
:10245000FF33E35C002B18D09B235B00E35C002B75
:1024600013D1D133FF33E35CB3420EDAA4235B0014
:10247000E15AE018090A023101F0E6F923000122CD
:10248000FE33013E01351A87FA70E8235B00E35CF6
:10249000002B30D0A8B2FEBD03683D00002BBED09B
:1024A00081880430090A023101F0CEF9D6235B009D
:1024B000E35836481F6001F06FFAAFE72300B133ED
:1024C000BA00FF339858013781880430090A023175
:1024D00001F0BAF9E8235B00E35CBB42EEDC2C4878
:1024E000F61AED1801F058FAE82200235200A3541E
:1024F000A0E70027EEE7200001F0C6FA002822D06E
:10250000002E20DD7319882647190193B60020009C
:1025100001F0EAF85A3080002018406801358188BF
:102520000430090A023101F08FF9200001F02CFA81
:10253000184801F031FAA3590133A351BD4202D02A
:10254000019B9D42E3D1144BE35C002BA2D0952369
:102550009B00E35C002B9DD0104BE15A002999D0E1
:102560000F4AA35C994202D90133A35492E7002396
:102570001A212000A35401F0F7F88BE7300DFF1F5C
:102580003409FF1F00140340E010FF1F222C01112B
:102590003E2C01115F2C01115A0200007202000052
:1025A0005E0200000D4970B54A6E0D4CD2038B6976
:1025B000D20BA24206D80B4D0224AA4204D901F044
:1025C000BBF970BD02246442E21815007E24254048
:1025D0002242F4D0A3432B438B61F0E700F000408C
:1025E0000A200000FC1C0000F8B51D4B1D4F1A7896
:1025F000002A10D1BA7B002A02D101321A7003E0FE
:10260000032AFAD0022AF8D001F0AEF90022012004
:10261000154B1A70F8BD154B154D1C68154B9E785F
:1026200001232B702878C0B200F066FBBB7B002B27
:102630000BD100F0F9FFA1239B007343E41883231F
:102640009B00E41823782B70E4E7032B02D101F000
:1026500043F8F0E70020022BDCD100F0ADFFEAE701
:102660001C09FF1FA60BFF1F2309FF1F3409FF1FB3
:10267000490AFF1F300DFF1FF0B587B00EAD2F7850
:102680000FAD2D780593AC46634614000E4D0CAA91
:1026900012782E7803930D9B009201932200059BE4
:1026A000029701F0D9F82E70012C01D0042C08D12A
:1026B000802206498B889343054A1278D20113433E
:1026C0008B8007B0F0BDC0461C09FF1F6C11FF1FB7
:1026D0007809FF1F0B001B3B70B504003020E02B76
:1026E0000DD81300E025493BFF3B9BB2ED00AB4208
:1026F00005D8034B200019825A8200F0ADFF70BD4F
:102700008410FF1F10B500F0DFFF054B00205B6851
:10271000052B04D9034A5268D20200D4980810BD90
:1027200000100040FCE100E070B500F0C5FF0D4B6B
:102730001B68FC33DC691D6AFFF7E4FF64198442FF
:1027400004D2094B01241B68002B07D0042200246B
:10275000064B1A70064A93690133936101F04CF9F4
:10276000200070BD2CBBFF1F9809FF1F2309FF1F0E
:10277000FC0FFF1F70B50C4D2B68FC335C6A00F03A
:102780009BFFFFF7BFFF2B680025FC339B6AE31814
:10279000834204D2054B1B68AB4200D1051B01F0FC
:1027A0002BF9280070BDC0462CBBFF1F9809FF1FE6
:1027B000D722044B92009B5810B5002B00D09847AD
:1027C00010BDC0460000FF1F10B500F0D1FEFFF79E
:1027D000EFFF2749274BCA6D274C1A4084235B0023
:1027E0001343CB65254B1B68186A01F00DF9244B88
:1027F000244A1A60244B254A1A60A022244B520016
:102800001A60244B187801F007F82000224901F0E3
:102810000BF80023A3600233A360204B2049236000
:1028200003232048A36000F0FFFF10221E4BFF206F
:102830001A60802252031A60802292031A6080225A
:1028400012041A6001F088F8012000F06DFFFA20F0
:10285000400000F081FF582001F03EF8134801F0DD
:10286000A3F8012000F0A8FF072001F025F810BD13
:1028700000F0004000FEFEFF141000402CBBFF1FC4
:10288000000003400180063DBC0003403408000006
:10289000A40003404A0AFF1F71020000C3090000A0
:1028A000FFFF3F002810004000E100E0307500000D
:1028B000674E336888331B6883F3088801F044F857
:1028C000644A6549136800200B401360634B644AF7
:1028D0001B68934200D1A6E000F0DEFF0221614AAE
:1028E00013688B431360FFF76FFF5F4B5F4C1878E3
:1028F000C0B201F041F80023A3600233A3605C4B37
:102900000120236001F080F80323A36001F06CF83C
:10291000040000F0D9FE050001F066F8554B186080
:1029200000F062FF544B1968621A531EA14200D294
:1029300013008022D203934201D39B029B0A326888
:10294000D16AC90700D471E04C491C0C09689BB2DC
:102950004C4359432402090A641803264849FC32AF
:1029600093680A6847489B1A474A076812684749AC
:102970009B18474A9A1833409208DB190A60036093
:10298000042B03D9013233400A6003600E684149C9
:10299000A619300000F0C0FE3F4F3E493B68C31807
:1029A0003B603000019300F067FF3C4E3068081830
:1029B00038493060884205D9019B01333B6000F003
:1029C0005BFF316000F070FE354B1B78002B0DD0A3
:1029D00000F07AFE334B621B196812188A4232D219
:1029E0004919091B091A304800F01EFF2F4E337A8F
:1029F000002B0ED000F068FE621BF16812189142A5
:102A000024D94919091B091A294800F00DFF002390
:102A10003372284B83F3088800F0F6FE002000F0A4
:102A20003BFF00F0E1FD00F037FF5CE7DC019900BF
:102A30000234641A5900641A09214B438033CB4095
:102A4000A408E41889E7FA218900CCE71A49DBE7F2
:102A50002CBBFF1F1CF00040FFFFC1FF0C0AFF1F33
:102A6000B641210310000040490AFF1F1410004026
:102A7000C3090000100AFF1F340AFF1F380AFF1F96
:102A8000200AFF1F280AFF1F1C0AFF1F240AFF1F1E
:102A9000C4090000710200006008FF1F2C0AFF1F1C
:102AA0001C09FF1FE408FF1F00100040740BFF1FEC
:102AB0003C10004000000020DC050000A022054B77
:102AC00092009B5810B5002B01D0984710BD00F024
:102AD00073FFFBE70000FF1FA122054B92009B58EC
:102AE00010B5002B01D0984710BD00F065FFFBE743
:102AF0000000FF1FA222054B92009B5810B5002B2F
:102B000001D0984710BD00F057FFFBE70000FF1F02
:102B1000A322054B92009B5810B5002B01D098477B
:102B200010BD00F049FFFBE70000FF1FA422054B8A
:102B300092009B5810B5002B01D0984710BD00F0B3
:102B40003BFFFBE70000FF1F70B500F0BDFD4F4BE2
:102B5000186000F019FE0400C30702D400F06CFFF7
:102B600070BD00224A4B1A604A4B1878013804287D
:102B700029D800F00BFD0320181C2400200000F0D1
:102B80002BFD0128ECD0444C2378042B6ED100F0AF
:102B90005BFD0028E4D000F047FF582000F09CFEC9
:102BA00002232370DCE7200000F046FDE9E7200067
:102BB00000F0A2FEE5E7200000F0A6FEE1E720001D
:102BC00000F042FFDDE700F0EFFD0500012808D12D
:102BD000324B1B78053B012B03D82000FFF76EFF1B
:102BE000D1E72D4B1B78022B01D0052B20D1022DD4
:102BF00028D12B4B9B7BAB431CD12000FFF76CFFF4
:102C0000264B18780128BED16405BCD4244925225E
:102C10004B7B034205D1233A13405A42534126339A
:102C20001A000B7D9342AED9322000F01DFDAAE7B9
:102C3000022D07D1194B1B78052B11D12000FFF76E
:102C400059FFDDE7012D0BD1012B03D12000FFF748
:102C50005FFF98E7062B03D12000FFF767FF92E79D
:102C6000200000F0A9FE022D8DD1C9E7032B04D16D
:102C70000C4B987C00F040FD72E7072B00D06FE70B
:102C8000094B987B00F000FE6AE7C0469C09FF1FD5
:102C90009809FF1F9009FF1F2309FF1F1C09FF1F31
:102CA000A60BFF1FBC0BFF1FD40BFF1FFA210A4B03
:102CB0000A4A49001A640A4A5A500A4A04395A50C0
:102CC000094A08319A64094A5A50094A5C315A50F3
:102CD000084ADA667047C0460000FF1F7926FF1FCA
:102CE0007527FF1F2927FF1F3D22FF1FE925FF1F13
:102CF000DD1CFF1FB11CFF1F8023F7B59C46264B30
:102D0000264F01932649274A274D284C284B022855
:102D10001AD1604638600868264E30408026360357
:102D20003043086001990978002909D11660224AC8
:102D30002A60224A2260E02219689143A03A1BE0EF
:102D40008021C9021160F2E766463E600F68194EA5
:102D50003E408027FF023E430E600199097800291A
:102D60000DD1176001280ED1154A2A60154A22603C
:102D7000E02219689143C03A0A431A60F7BD8021E6
:102D800089021160EEE7E0210F4A02432A600F4AF0
:102D900022601A688A43F0E74B0AFF1FE0000340F5
:102DA000D80003409000034000000340500003405F
:102DB00040000340FFFFE3FF0280063D80450822FC
:102DC0000180063D80660822008006988055082212
:102DD000F8B51E4B80261A68002014003440324299
:102DE00032D11A681A4F32431A6001223B6806300A
:102DF00093433B6000F008FE0122164D2B681E43F2
:102E00002E603B680A2613433B608027BF00124BAD
:102E10001B683B4211D1013EF6B2FF2E09D17E2242
:102E20000E4B1C682B68E40B1440934323432B6028
:102E300005E0082000F0E8FDE9E7002EEFD1802250
:102E40002B68600893432B60F8BDC046C4F0004077
:102E50005CF0004018F0004068F0004060F0004076
:102E600010B500F0D9FB01215820034A00F0F4FD11
:102E7000FFF7AEFF10BDC046600AFF1F10B57822F5
:102E80000021034800F010FD00F09EFD002010BD61
:102E90005CBDFF1F70B5040000F00EFC00230C2089
:102EA0000B4A010059438D18515C00290DD0A142F5
:102EB00008D1012300246B7000F006FD00F09CFD9A
:102EC000200070BD01330A2BEBD11224F6E7C04677
:102ED0005CBDFF1F70B5040000F0EEFB002319007D
:102EE0001D000D4A1078002806D0A0420CD1557064
:102EF00001310C320A29F5D1002B0AD100F064FD12
:102F000000F07AFD002070BD5078461EB0411B18BD
:102F1000EEE700F0D9FCF3E75CBDFF1FF7B5040056
:102F20000C20002384460E4D019267465F43E85D06
:102F30007E19A04212D000280BD10A4B9C46624653
:102F40001B7808331370019B70707C557160B360FF
:102F5000FEBD01330A2BE8D10320F9E70720F7E78C
:102F60005CBDFF1F58BDFF1F8020F8B5484BC00552
:102F70001B68C1248360474BFF251A680123134354
:102F80004361454BA4001A68444B40211A60444BEE
:102F90001A68444B1A60444B1A59AA431A51C52265
:102FA00092009E58AE433143802699509F583F4926
:102FB000F6010F403E439E509E5880273602360A47
:102FC0003043985080201A5900020A4002431A5197
:102FD00004341A59364E3F04324080263A431A517F
:102FE0001A5936061202120A32431A5108341A5973
:102FF00080260A4002431A51C32292009F58B446C9
:10300000AF4337439F509F58294E0F4007439F506F
:103010009F58374080263604374380269F509F585C
:1030200036063F023F0A37439F50C0221F59AF4325
:103030003A431A511A591202120A1643C6221E5155
:1030400092009C58AC4365462C439C509C580025EC
:103050000C4020439850C72080001A58154C11404E
:10306000C02212020A431A50134B1B78DB08AB42F2
:1030700001DC0020F8BD2378002B06D0A368002BCC
:1030800000D0984701350C34EEE71220F2E7C04635
:10309000F03AFF1FEC3AFF1FB0F0004054BDFF1F95
:1030A000B4F0004050BDFF1F00E100E0FF00FFFF53
:1030B000FFFF00FF5CBDFF1F58BDFF1F030010B5E1
:1030C0001F2809D8072200201340072404490A7842
:1030D000A24313430B7010BD00230620F5E7C04642
:1030E00058BDFF1F054B06491B780A6805485B075A
:1030F00002401B0B134300200B60704758BDFF1F9D
:103100001CF00040FFFFC1FF70B50C25FFF7EAFF80
:103110000A4B1C780A4BE4086543ED18002C01D1DA
:10312000200070BD2B78002B06D06B68002B00D0E0
:103130009847013C0C3DF1E71220F2E758BDFF1F14
:1031400050BDFF1F1FB5002102220B00019100910D
:10315000052000F039FB02230B490A681A42FCD112
:1031600020230393039B5A1E0392002BFAD1074A94
:103170001368002BFCDA0B246C442000012100F0C2
:1031800043FA207804B010BD90C8004000C8004049
:1031900013B504000A4B0193019B002B01D11120B0
:1031A00016BDFFF7CFFF23000340044205D00520E2
:1031B00000F02AFC019B013BEDE71800F0E7C04658
:1031C000FFFFFF0707B500F077FA80220821D2053C
:1031D000936A0191002B01D10739916202210C4AB7
:1031E00011600199481E01900029FAD10331116044
:1031F000053101910199481E01900029FAD1116011
:10320000002B02D18022D205936200F0F5FB07BDAE
:1032100000C00040F0B52D4C89B02378002B4FD171
:10322000FEF770FB02232A4F03903A681A42FCD142
:1032300020230693069B5A1E0692002BFAD1254E98
:103240003368002BFCDA0120FFF7A2FF011E02D039
:10325000112009B0F0BD030003220190009005ADDC
:103260009F2000F0B1FA0321280000F0CDF90223DD
:103270003A681A42FCD120230793079B5A1E0792F3
:10328000002BFAD13368002BFCDA0120FFF780FF16
:103290000028DDD10398FEF749FBAA786B7811046A
:1032A0001B020B4329780B4363601300113B0A494F
:1032B000052B07D801239340A3600B6001232370E3
:1032C0000020C6E780231B03F6E7C046D83AFF1F5D
:1032D00090C8004000C800409808FF1F1E4B30B542
:1032E0005A6818781D4B85B0D31859424B410121BB
:1032F0000093002300F090FB194B1A4A02259A63B1
:1033000000221A6510325A658022C4219D65164B31
:103310001648D202DA6789004258154B80241A40B9
:1033200080231B0413434350642341200393E4058B
:1033300000F032F8402000F02FF86562039D6B1E0C
:103340000393002DFAD103236362FFF73BFFA562CD
:10335000FFF760FF05B030BDE43AFF1F95FFFEF7B1
:1033600000C80040050001FF04E100E000E100E0CA
:10337000FFFF00FF10B5064B18705960FFF7AEFF56
:1033800000211320034AFFF7C9FD002010BDC046ED
:10339000E43AFF1FDD32FF1F1F2807D801238022D8
:1033A0008340D20591680B43936070473F2808D84B
:1033B0000123802220388340D20551690B43536199
:1033C000F3E75F28F1D80123802240388340D205FB
:1033D000116A0B431362E8E71F2807D801228021F6
:1033E0008240C9058B6893438B6070473F2808D89B
:1033F0000122802120388240C9054B6993434B61EB
:10340000F3E75F28F1D80122802140388240C905C6
:103410000B6A93430B62E8E71F2810D88023020051
:10342000DB05153A1968012A06D820229143196054
:1034300019680A431A60704701228240F6E73F2864
:1034400011D880230200DB05353AD968032A06D853
:1034500010229143D960D9680A43DA60EBE7012270
:1034600020388240F5E75F28E5D842238022181AE9
:10347000413B8340D205516A99435162516A0B43E3
:103480005362D8E710B50400012813D1A0221849CF
:1034900092050B685B015B0913430B60154B164AE1
:1034A00019681140154A0A431A60402219680A43F4
:1034B0001A6010BD0028FCD101000A2000F03CF980
:1034C00021000B2000F038F9C0220A4B9200196845
:1034D0000A4340211A601A688A431A60B0220449DC
:1034E00012060B685B015B0913430B60E1E7C04602
:1034F00014F000401CF000407F00FEFF80FD010042
:10350000014B18687047C0466008FF1F074B10B595
:103510001B681A1A834201D2013B1A1AFA21044885
:103520008900504300F0F8F810BDC0466008FF1F46
:1035300071020000FA2110B58900C00300F0ECF818
:1035400000F062FA10BD000005490B68002B05D1A0
:10355000044A0A6004490A60044A13607047C0467E
:10356000140AFF1F841E0000380AFF1FC4F0004029
:103570000023034A1360034A1360034A1360704731
:1035800054F0004040F1004044F1004002B4714664
:1035900049084900095C49008E4402BC7047C04696
:1035A00003B47146490840004900095E49008E4451
:1035B00003BC70470000000001B40248844601BC0F
:1035C000604700BF19FA000001B40248844601BCFC
:1035D000604700BFDD3F000001B40248844601BCE3
:1035E000604700BF0134010001B40248844601BCB9
:1035F000604700BF8552010001B40248844601BC07
:10360000604700BF2144000001B40248844601BC69
:10361000604700BF3D71010001B40248844601BC0F
:10362000604700BFED68010001B40248844601BC58
:10363000604700BFE9F6000001B40248844601BCBF
:10364000604700BF0934010001B40248844601BC50
:10365000604700BF01D7000001B40248844601BCA6
:10366000604700BF116E000001B40248844601BCEF
:10367000604700BF6137010001B40248844601BCC5
:10368000604700BF85C1000001B40248844601BC08
:10369000604700BF0D52010001B40248844601BCDE
:1036A000604700BFE94C010001B40248844601BCF8
:1036B000604700BFD544010001B40248844601BC04
:1036C000604700BF75A9000001B40248844601BCF0
:1036D000604700BFC95C010001B40248844601BCD8
:1036E000604700BF75F8000001B40248844601BC81
:1036F000604700BFD9B0000001B40248844601BC55
:10370000604700BF4DF9000001B40248844601BC87
:10371000604700BFB352010001B40248844601BCB7
:10372000604700BF090E000001B40248844601BC96
:10373000604700BF6911010001B40248844601BC22
:10374000604700BFD512011101B40248844601BC94
:10375000604700BFCD0C010001B40248844601BCA3
:10376000604700BF8512010001B40248844601BCD5
:10377000604700BF53B9000001B40248844601BC51
:10378000604700BF8944000001B40248844601BC80
:10379000604700BFBD0B010001B40248844601BC74
:1037A000604700BF51B8000001B40248844601BC24
:1037B000604700BFDD0C010001B40248844601BC33
:1037C000604700BFE512010001B40248844601BC15
:1037D000604700BF496D010001B40248844601BC46
:1037E000604700BF6D0B010001B40248844601BC74
:1037F000604700BFC166010001B40248844601BCB5
:10380000604700BFE927000001B40248844601BCBC
:10381000604700BF7997000001B40248844601BCAC
:10382000604700BFEDA5000001B40248844601BC1A
:10383000604700BF2D6C010001B40248844601BC02
:10384000604700BF8937010001B40248844601BCCB
:10385000604700BFC115010001B40248844601BCA5
:10386000604700BF9D6A000001B40248844601BC65
:10387000604700BFC1A5000001B40248844601BCF6
:10388000604700BF090E000001B40248844601BC35
:10389000604700BFC1F7000001B40248844601BC84
:1038A000604700BF016C010001B40248844601BCBE
:1038B000604700BFB70E000001B40248844601BC57
:1038C000604700BFF90D010001B40248844601BC05
:1038D000604700BF21A9000001B40248844601BC32
:1038E000604700BF7912010001B40248844601BC60
:1038F000604700BFBD5C010001B40248844601BCC2
:10390000604700BF0534010001B40248844601BC91
:10391000604700BFF535010001B40248844601BC90
:10392000604700BFE90B010001B40248844601BCB6
:10393000604700BF8D82000001B40248844601BC8C
:10394000604700BFD1AE000001B40248844601BC0C
:10395000604700BFC9A9000001B40248844601BC09
:10396000604700BFED6B010001B40248844601BC12
:10397000604700BFA9D8000001B40248844601BCDA
:10398000604700BF8914010001B40248844601BCAD
:10399000604700BF5976010001B40248844601BC6B
:1039A000604700BF4D26011101B40248844601BCA6
:1039B000604700BF8D11010001B40248844601BC7C
:1039C000604700BFE917010001B40248844601BC0A
:1039D000604700BFADAE000001B40248844601BCA0
:1039E000604700BF8B52010001B40248844601BC0D
:1039F000604700BF156B010001B40248844601BC5A
:103A0000604700BF9DA9000001B40248844601BC84
:103A1000604700BF0189000001B40248844601BC30
:103A2000604700BFC56D010001B40248844601BC77
:103A3000604700BF6DF6000001B40248844601BC37
:103A4000604700BFDD0A010001B40248844601BCA2
:103A5000604700BFF935010001B40248844601BC4B
:103A6000604700BF0167010001B40248844601BC01
:103A7000604700BFE9D4000001B40248844601BC9D
:103A8000604700BFF9ED000001B40248844601BC64
:103A9000604700BF71B0000001B40248844601BC19
:103AA000604700BFCD4C010001B40248844601BC10
:083AB000604700BF89290111E4
